{
    "_format": "hh-sol-artifact-1",
    "contractName": "Item",
    "sourceName": "contracts/Item.sol",
    "abi": [
        {
            "inputs": [
                {
                    "internalType": "contract Manufacturer",
                    "name": "_manufacturer",
                    "type": "address"
                },
                {
                    "internalType": "uint256",
                    "name": "_itemIndex",
                    "type": "uint256"
                },
                {
                    "internalType": "uint256",
                    "name": "_priceInWei",
                    "type": "uint256"
                }
            ],
            "stateMutability": "nonpayable",
            "type": "constructor"
        },
        {
            "inputs": [],
            "name": "itemIndex",
            "outputs": [
                {
                    "internalType": "uint256",
                    "name": "",
                    "type": "uint256"
                }
            ],
            "stateMutability": "view",
            "type": "function"
        },
        {
            "inputs": [],
            "name": "priceInWei",
            "outputs": [
                {
                    "internalType": "uint256",
                    "name": "",
                    "type": "uint256"
                }
            ],
            "stateMutability": "view",
            "type": "function"
        },
        {
            "stateMutability": "payable",
            "type": "receive"
        }
    ],
    "bytecode": "0x608060405234801561001057600080fd5b506040516105af3803806105af83398181016040528101906100329190610134565b816001819055508060008190555082600260006101000a81548173ffffffffffffffffffffffffffffffffffffffff021916908373ffffffffffffffffffffffffffffffffffffffff160217905550505050610187565b600080fd5b600073ffffffffffffffffffffffffffffffffffffffff82169050919050565b60006100b98261008e565b9050919050565b60006100cb826100ae565b9050919050565b6100db816100c0565b81146100e657600080fd5b50565b6000815190506100f8816100d2565b92915050565b6000819050919050565b610111816100fe565b811461011c57600080fd5b50565b60008151905061012e81610108565b92915050565b60008060006060848603121561014d5761014c610089565b5b600061015b868287016100e9565b935050602061016c8682870161011f565b925050604061017d8682870161011f565b9150509250925092565b610419806101966000396000f3fe60806040526004361061002d5760003560e01c80633c8da588146101dc578063e07bb1a714610207576101d7565b366101d7573460005414610076576040517f08c379a000000000000000000000000000000000000000000000000000000000815260040161006d9061029b565b60405180910390fd5b6000600260009054906101000a900473ffffffffffffffffffffffffffffffffffffffff1673ffffffffffffffffffffffffffffffffffffffff16346001546040516024016100c591906102d4565b6040516020818303038152906040527f800fb83f000000000000000000000000000000000000000000000000000000007bffffffffffffffffffffffffffffffffffffffffffffffffffffffff19166020820180517bffffffffffffffffffffffffffffffffffffffffffffffffffffffff838183161783525050505060405161014f9190610360565b60006040518083038185875af1925050503d806000811461018c576040519150601f19603f3d011682016040523d82523d6000602084013e610191565b606091505b50509050806101d5576040517f08c379a00000000000000000000000000000000000000000000000000000000081526004016101cc906103c3565b60405180910390fd5b005b600080fd5b3480156101e857600080fd5b506101f1610232565b6040516101fe91906102d4565b60405180910390f35b34801561021357600080fd5b5061021c610238565b60405161022991906102d4565b60405180910390f35b60005481565b60015481565b600082825260208201905092915050565b7f46756c6c207061796d656e742069732072657175697265640000000000000000600082015250565b600061028560188361023e565b91506102908261024f565b602082019050919050565b600060208201905081810360008301526102b481610278565b9050919050565b6000819050919050565b6102ce816102bb565b82525050565b60006020820190506102e960008301846102c5565b92915050565b600081519050919050565b600081905092915050565b60005b83811015610323578082015181840152602081019050610308565b60008484015250505050565b600061033a826102ef565b61034481856102fa565b9350610354818560208601610305565b80840191505092915050565b600061036c828461032f565b915081905092915050565b7f5472616e73616374696f6e2043616e63656c6c65640000000000000000000000600082015250565b60006103ad60158361023e565b91506103b882610377565b602082019050919050565b600060208201905081810360008301526103dc816103a0565b905091905056fea2646970667358221220c26b424b4463ae36dff1c8af65b44841fa2b65d34708104abab3d21f69ed948964736f6c63430008110033",
    "linkReferences": {},
    "deployedLinkReferences": {}
}