{
    "_format": "hh-sol-artifact-1",
    "contractName": "Manufacturer",
    "sourceName": "contracts/Manufacturer.sol",
    "abi": [
        {
            "anonymous": false,
            "inputs": [
                {
                    "indexed": false,
                    "internalType": "uint256",
                    "name": "itemIndex",
                    "type": "uint256"
                },
                {
                    "indexed": false,
                    "internalType": "uint256",
                    "name": "itemNumber",
                    "type": "uint256"
                },
                {
                    "indexed": false,
                    "internalType": "string",
                    "name": "itemName",
                    "type": "string"
                },
                {
                    "indexed": false,
                    "internalType": "string",
                    "name": "itemSource",
                    "type": "string"
                },
                {
                    "indexed": false,
                    "internalType": "string",
                    "name": "itemDestination",
                    "type": "string"
                },
                {
                    "indexed": false,
                    "internalType": "address",
                    "name": "_item",
                    "type": "address"
                }
            ],
            "name": "manufacturerItem",
            "type": "event"
        },
        {
            "inputs": [
                {
                    "internalType": "uint256",
                    "name": "_itemNumber",
                    "type": "uint256"
                },
                {
                    "internalType": "string",
                    "name": "_itemName",
                    "type": "string"
                },
                {
                    "internalType": "string",
                    "name": "_itemSource",
                    "type": "string"
                },
                {
                    "internalType": "string",
                    "name": "_itemDestination",
                    "type": "string"
                },
                {
                    "internalType": "uint256",
                    "name": "_itemPrice",
                    "type": "uint256"
                }
            ],
            "name": "createItemManufactuter",
            "outputs": [],
            "stateMutability": "nonpayable",
            "type": "function"
        },
        {
            "inputs": [],
            "name": "isOwner",
            "outputs": [
                {
                    "internalType": "bool",
                    "name": "",
                    "type": "bool"
                }
            ],
            "stateMutability": "view",
            "type": "function"
        },
        {
            "inputs": [
                {
                    "internalType": "uint256",
                    "name": "",
                    "type": "uint256"
                }
            ],
            "name": "manufacItems",
            "outputs": [
                {
                    "internalType": "contract Item",
                    "name": "_item",
                    "type": "address"
                },
                {
                    "internalType": "uint256",
                    "name": "itemNumber",
                    "type": "uint256"
                },
                {
                    "internalType": "uint256",
                    "name": "itemPrice",
                    "type": "uint256"
                },
                {
                    "internalType": "string",
                    "name": "itemName",
                    "type": "string"
                },
                {
                    "internalType": "string",
                    "name": "itemSource",
                    "type": "string"
                },
                {
                    "internalType": "string",
                    "name": "itemDestination",
                    "type": "string"
                }
            ],
            "stateMutability": "view",
            "type": "function"
        },
        {
            "inputs": [
                {
                    "internalType": "uint256",
                    "name": "_itemIndex",
                    "type": "uint256"
                }
            ],
            "name": "triggerPayment",
            "outputs": [],
            "stateMutability": "payable",
            "type": "function"
        }
    ],
    "bytecode": "0x608060405234801561001057600080fd5b50336000806101000a81548173ffffffffffffffffffffffffffffffffffffffff021916908373ffffffffffffffffffffffffffffffffffffffff1602179055506116e8806100606000396000f3fe608060405260043610620000445760003560e01c80633bdd915514620000495780636dfe4fe01462000077578063800fb83f14620000c05780638f32d59b14620000e0575b600080fd5b3480156200005657600080fd5b506200007560048036038101906200006f9190620007eb565b62000110565b005b3480156200008457600080fd5b50620000a360048036038101906200009d9190620008d0565b6200036c565b604051620000b79695949392919062000a27565b60405180910390f35b620000de6004803603810190620000d89190620008d0565b62000578565b005b348015620000ed57600080fd5b50620000f8620005d6565b60405162000107919062000ac6565b60405180910390f35b6200011a620005d6565b6200015c576040517f08c379a0000000000000000000000000000000000000000000000000000000008152600401620001539062000b33565b60405180910390fd5b6000306001548360405162000171906200062c565b6200017f9392919062000b8e565b604051809103906000f0801580156200019c573d6000803e3d6000fd5b5090508060026000600154815260200190815260200160002060000160006101000a81548173ffffffffffffffffffffffffffffffffffffffff021916908373ffffffffffffffffffffffffffffffffffffffff16021790555085600260006001548152602001908152602001600020600101819055508460026000600154815260200190815260200160002060030190816200023a919062000df7565b5083600260006001548152602001908152602001600020600401908162000262919062000df7565b508260026000600154815260200190815260200160002060050190816200028a919062000df7565b5081600260006001548152602001908152602001600020600201819055507f31ecf6a135e5c389ecdae33af8393c4d5dbdd2666ae2ecda1fbdb99bc0d5d59d6001546002600060015481526020019081526020016000206001015460026000600154815260200190815260200160002060030160026000600154815260200190815260200160002060040160026000600154815260200190815260200160002060050186604051620003429695949392919062000f93565b60405180910390a1600160008154809291906200035f9062001044565b9190505550505050505050565b60026020528060005260406000206000915090508060000160009054906101000a900473ffffffffffffffffffffffffffffffffffffffff1690806001015490806002015490806003018054620003c39062000bfa565b80601f0160208091040260200160405190810160405280929190818152602001828054620003f19062000bfa565b8015620004425780601f10620004165761010080835404028352916020019162000442565b820191906000526020600020905b8154815290600101906020018083116200042457829003601f168201915b505050505090806004018054620004599062000bfa565b80601f0160208091040260200160405190810160405280929190818152602001828054620004879062000bfa565b8015620004d85780601f10620004ac57610100808354040283529160200191620004d8565b820191906000526020600020905b815481529060010190602001808311620004ba57829003601f168201915b505050505090806005018054620004ef9062000bfa565b80601f01602080910402602001604051908101604052809291908181526020018280546200051d9062000bfa565b80156200056e5780601f1062000542576101008083540402835291602001916200056e565b820191906000526020600020905b8154815290600101906020018083116200055057829003601f168201915b5050505050905086565b34600260008381526020019081526020016000206002015414620005d3576040517f08c379a0000000000000000000000000000000000000000000000000000000008152600401620005ca90620010e1565b60405180910390fd5b50565b60003373ffffffffffffffffffffffffffffffffffffffff1660008054906101000a900473ffffffffffffffffffffffffffffffffffffffff1673ffffffffffffffffffffffffffffffffffffffff1614905090565b6105af806200110483390190565b6000604051905090565b600080fd5b600080fd5b6000819050919050565b62000663816200064e565b81146200066f57600080fd5b50565b600081359050620006838162000658565b92915050565b600080fd5b600080fd5b6000601f19601f8301169050919050565b7f4e487b7100000000000000000000000000000000000000000000000000000000600052604160045260246000fd5b620006de8262000693565b810181811067ffffffffffffffff821117156200070057620006ff620006a4565b5b80604052505050565b6000620007156200063a565b9050620007238282620006d3565b919050565b600067ffffffffffffffff821115620007465762000745620006a4565b5b620007518262000693565b9050602081019050919050565b82818337600083830152505050565b6000620007846200077e8462000728565b62000709565b905082815260208101848484011115620007a357620007a26200068e565b5b620007b08482856200075e565b509392505050565b600082601f830112620007d057620007cf62000689565b5b8135620007e28482602086016200076d565b91505092915050565b600080600080600060a086880312156200080a576200080962000644565b5b60006200081a8882890162000672565b955050602086013567ffffffffffffffff8111156200083e576200083d62000649565b5b6200084c88828901620007b8565b945050604086013567ffffffffffffffff81111562000870576200086f62000649565b5b6200087e88828901620007b8565b935050606086013567ffffffffffffffff811115620008a257620008a162000649565b5b620008b088828901620007b8565b9250506080620008c38882890162000672565b9150509295509295909350565b600060208284031215620008e957620008e862000644565b5b6000620008f98482850162000672565b91505092915050565b600073ffffffffffffffffffffffffffffffffffffffff82169050919050565b6000819050919050565b60006200094d62000947620009418462000902565b62000922565b62000902565b9050919050565b600062000961826200092c565b9050919050565b6000620009758262000954565b9050919050565b620009878162000968565b82525050565b62000998816200064e565b82525050565b600081519050919050565b600082825260208201905092915050565b60005b83811015620009da578082015181840152602081019050620009bd565b60008484015250505050565b6000620009f3826200099e565b620009ff8185620009a9565b935062000a11818560208601620009ba565b62000a1c8162000693565b840191505092915050565b600060c08201905062000a3e60008301896200097c565b62000a4d60208301886200098d565b62000a5c60408301876200098d565b818103606083015262000a708186620009e6565b9050818103608083015262000a868185620009e6565b905081810360a083015262000a9c8184620009e6565b9050979650505050505050565b60008115159050919050565b62000ac08162000aa9565b82525050565b600060208201905062000add600083018462000ab5565b92915050565b7f596f7520617265206e6f7420746865206f776e65720000000000000000000000600082015250565b600062000b1b601583620009a9565b915062000b288262000ae3565b602082019050919050565b6000602082019050818103600083015262000b4e8162000b0c565b9050919050565b600062000b62826200092c565b9050919050565b600062000b768262000b55565b9050919050565b62000b888162000b69565b82525050565b600060608201905062000ba5600083018662000b7d565b62000bb460208301856200098d565b62000bc360408301846200098d565b949350505050565b7f4e487b7100000000000000000000000000000000000000000000000000000000600052602260045260246000fd5b6000600282049050600182168062000c1357607f821691505b60208210810362000c295762000c2862000bcb565b5b50919050565b60008190508160005260206000209050919050565b60006020601f8301049050919050565b600082821b905092915050565b60006008830262000c937fffffffffffffffffffffffffffffffffffffffffffffffffffffffffffffffff8262000c54565b62000c9f868362000c54565b95508019841693508086168417925050509392505050565b600062000cd862000cd262000ccc846200064e565b62000922565b6200064e565b9050919050565b6000819050919050565b62000cf48362000cb7565b62000d0c62000d038262000cdf565b84845462000c61565b825550505050565b600090565b62000d2362000d14565b62000d3081848462000ce9565b505050565b5b8181101562000d585762000d4c60008262000d19565b60018101905062000d36565b5050565b601f82111562000da75762000d718162000c2f565b62000d7c8462000c44565b8101602085101562000d8c578190505b62000da462000d9b8562000c44565b83018262000d35565b50505b505050565b600082821c905092915050565b600062000dcc6000198460080262000dac565b1980831691505092915050565b600062000de7838362000db9565b9150826002028217905092915050565b62000e02826200099e565b67ffffffffffffffff81111562000e1e5762000e1d620006a4565b5b62000e2a825462000bfa565b62000e3782828562000d5c565b600060209050601f83116001811462000e6f576000841562000e5a578287015190505b62000e66858262000dd9565b86555062000ed6565b601f19841662000e7f8662000c2f565b60005b8281101562000ea95784890151825560018201915060208501945060208101905062000e82565b8683101562000ec9578489015162000ec5601f89168262000db9565b8355505b6001600288020188555050505b505050505050565b6000815462000eed8162000bfa565b62000ef98186620009a9565b9450600182166000811462000f17576001811462000f2e5762000f65565b60ff19831686528115156020028601935062000f65565b62000f398562000c2f565b60005b8381101562000f5d5781548189015260018201915060208101905062000f3c565b808801955050505b50505092915050565b600062000f7b8262000902565b9050919050565b62000f8d8162000f6e565b82525050565b600060c08201905062000faa60008301896200098d565b62000fb960208301886200098d565b818103604083015262000fcd818762000ede565b9050818103606083015262000fe3818662000ede565b9050818103608083015262000ff9818562000ede565b90506200100a60a083018462000f82565b979650505050505050565b7f4e487b7100000000000000000000000000000000000000000000000000000000600052601160045260246000fd5b600062001051826200064e565b91507fffffffffffffffffffffffffffffffffffffffffffffffffffffffffffffffff820362001086576200108562001015565b5b600182019050919050565b7f46756c6c207061796d656e742069732072657175697265640000000000000000600082015250565b6000620010c9601883620009a9565b9150620010d68262001091565b602082019050919050565b60006020820190508181036000830152620010fc81620010ba565b905091905056fe608060405234801561001057600080fd5b506040516105af3803806105af83398181016040528101906100329190610134565b816001819055508060008190555082600260006101000a81548173ffffffffffffffffffffffffffffffffffffffff021916908373ffffffffffffffffffffffffffffffffffffffff160217905550505050610187565b600080fd5b600073ffffffffffffffffffffffffffffffffffffffff82169050919050565b60006100b98261008e565b9050919050565b60006100cb826100ae565b9050919050565b6100db816100c0565b81146100e657600080fd5b50565b6000815190506100f8816100d2565b92915050565b6000819050919050565b610111816100fe565b811461011c57600080fd5b50565b60008151905061012e81610108565b92915050565b60008060006060848603121561014d5761014c610089565b5b600061015b868287016100e9565b935050602061016c8682870161011f565b925050604061017d8682870161011f565b9150509250925092565b610419806101966000396000f3fe60806040526004361061002d5760003560e01c80633c8da588146101dc578063e07bb1a714610207576101d7565b366101d7573460005414610076576040517f08c379a000000000000000000000000000000000000000000000000000000000815260040161006d9061029b565b60405180910390fd5b6000600260009054906101000a900473ffffffffffffffffffffffffffffffffffffffff1673ffffffffffffffffffffffffffffffffffffffff16346001546040516024016100c591906102d4565b6040516020818303038152906040527f800fb83f000000000000000000000000000000000000000000000000000000007bffffffffffffffffffffffffffffffffffffffffffffffffffffffff19166020820180517bffffffffffffffffffffffffffffffffffffffffffffffffffffffff838183161783525050505060405161014f9190610360565b60006040518083038185875af1925050503d806000811461018c576040519150601f19603f3d011682016040523d82523d6000602084013e610191565b606091505b50509050806101d5576040517f08c379a00000000000000000000000000000000000000000000000000000000081526004016101cc906103c3565b60405180910390fd5b005b600080fd5b3480156101e857600080fd5b506101f1610232565b6040516101fe91906102d4565b60405180910390f35b34801561021357600080fd5b5061021c610238565b60405161022991906102d4565b60405180910390f35b60005481565b60015481565b600082825260208201905092915050565b7f46756c6c207061796d656e742069732072657175697265640000000000000000600082015250565b600061028560188361023e565b91506102908261024f565b602082019050919050565b600060208201905081810360008301526102b481610278565b9050919050565b6000819050919050565b6102ce816102bb565b82525050565b60006020820190506102e960008301846102c5565b92915050565b600081519050919050565b600081905092915050565b60005b83811015610323578082015181840152602081019050610308565b60008484015250505050565b600061033a826102ef565b61034481856102fa565b9350610354818560208601610305565b80840191505092915050565b600061036c828461032f565b915081905092915050565b7f5472616e73616374696f6e2043616e63656c6c65640000000000000000000000600082015250565b60006103ad60158361023e565b91506103b882610377565b602082019050919050565b600060208201905081810360008301526103dc816103a0565b905091905056fea2646970667358221220c26b424b4463ae36dff1c8af65b44841fa2b65d34708104abab3d21f69ed948964736f6c63430008110033a2646970667358221220f46635c3d4ac9d42a5303915b9533fb50cf7305169ae0f29cc8c632bc145040c64736f6c63430008110033",
    "linkReferences": {},
    "deployedLinkReferences": {}
}